:100000000C9446000C9465000C9465000C946500FB
:100010000C9465000C9465000C9465000C946500CC
:100020000C9465000C9465000C9465000C946500BC
:100030000C9465000C940C010C9465000C94650004
:100040000C9465000C9465000C9465000C9465009C
:100050000C9465000C9465000C9465000C9465008C
:100060000C9465000C9465000C9465000C9465007C
:100070000C9465000C9465000C9465000C9465006C
:100080000C9465000C9465000C94650011241FBE4F
:10009000CFEFD0E4DEBFCDBF11E0A0E0B1E0E6E3FA
:1000A000FEE000E00BBF02C007900D92A231B10745
:1000B000D9F721E0A2E1B1E001C01D92A232B2075E
:1000C000E1F70E945F040C9419070C940000CF9391
:1000D000DF9300D01F92CDB7DEB789837B836A831D
:1000E00089818A3031F48A819B81BC018DE00E9434
:1000F000670080EC90E0FC018081882F90E08072A6
:100100009927892BB1F386EC90E02981FC012083AB
:1001100080E090E00F900F900F90DF91CF910895C5
:10012000CF93DF9300D000D0CDB7DEB769837A8359
:100130008B839C8389819A81AB81BC8180930E01E2
:1001400090930F01A0931001B093110180910E01C3
:1001500090910F01A0911001B091110180931301B2
:1001600090931401A0931501B093160100000F9015
:100170000F900F900F90DF91CF910895CF93DF9361
:10018000CDB7DEB781E890E02BE0FC01208388E862
:1001900090E02DE730E0FC01318320838FE690E092
:1001A00022E0FC01208384E890E0FC0111821082AF
:1001B00080910E0190910F01A0911001B091110159
:1001C0008093130190931401A0931501B09316012D
:1001D0008FE590E02FE530E0F90120812068FC01F7
:1001E00020830000DF91CF910895CF93DF93CDB7A7
:1001F000DEB781E890E0FC0110820000DF91CF9132
:100200000895CF93DF93CDB7DEB781E080931201DD
:100210000000DF91CF9108951F920F9200905F0030
:100220000F92112400905B000F922F933F934F93F6
:100230005F936F937F938F939F93AF93BF93EF934E
:10024000FF93CF93DF93CDB7DEB7809113019091E9
:100250001401A0911501B09116010197A109B109EE
:100260008093130190931401A0931501B09316018C
:100270008091130190911401A0911501B091160184
:10028000892B8A2B8B2B91F40E94010180910E0106
:1002900090910F01A0911001B09111018093130171
:1002A00090931401A0931501B09316010000DF9103
:1002B000CF91FF91EF91BF91AF919F918F917F91DE
:1002C0006F915F914F913F912F910F9000925B0042
:1002D0000F9000925F000F901F9018950F931F933F
:1002E000CF93DF9300D000D0CDB7DEB769837A8398
:1002F0008B839C8320E030E0A90169817A818B8126
:100300009C810E948505882351F481E990E021E9D0
:1003100030E0F90120812870FC01208309C081E9C7
:1003200090E021E930E0F90120812360FC01208385
:1003300028E539E344E75FE369817A818B819C8119
:100340000E948505882344F488E990E02FEF3FEF71
:10035000FC013183208334C020E034E244EF56E4D2
:1003600069817A818B819C810E94A706181634F4DA
:1003700088E990E0FC011182108222C008E910E0B7
:1003800020E030E040E053E469817A818B819C81F8
:100390000E94AC06DC01CB019C01AD0160E074E27F
:1003A00084EF9AE40E948A05DC01CB01BC01CD01F7
:1003B0000E94FC05DC01CB010197F8019183808349
:1003C00084E990E0FC011182108200000F900F90F0
:1003D0000F900F90DF91CF911F910F910895CF93C0
:1003E000DF93CDB7DEB780E990E020E4FC01208305
:1003F00081E990E02BE0FC01208360E070E0CB011C
:100400000E946E010000DF91CF910895CF93DF939A
:10041000CDB7DEB780E990E0FC01108281E990E081
:10042000FC0110820000DF91CF910895CF93DF93FC
:1004300000D01F92CDB7DEB789836A834B838B814F
:10044000882371F08A81282F30E081E090E002C09B
:10045000880F991F2A95E2F7982F8981892B0EC062
:100460008A81282F30E081E090E002C0880F991F38
:100470002A95E2F7982F9095898189230F900F9004
:100480000F90DF91CF910895CF93DF9300D0CDB738
:10049000DEB789836A838A81282F30E081E090E08B
:1004A00002C0880F991F2A95E2F7982F8981892326
:1004B0000F900F90DF91CF910895CF93DF93CDB739
:1004C000DEB72C970FB6F894DEBF0FBECDBF6D839D
:1004D0007E838F83988729873A874B875C878D81B6
:1004E0009E81AF81B88529853A854B855C85BC01A5
:1004F000CD010E946305DC01CB0189839A83AB8324
:10050000BC8389819A81AB81BC81892B8A2B8B2BFF
:1005100029F489859A85AB85BC8511C089859A8522
:10052000AB85BC858D839E83AF83B88789819A8193
:10053000AB81BC8189879A87AB87BC87D0CFBC0150
:10054000CD012C960FB6F894DEBF0FBECDBFDF9164
:10055000CF9108950F931F93CF93DF93CDB7DEB75D
:1005600008E210E040E064E08FEF0E941602F8011C
:100570008083000086E290E0FC018081809560E04D
:100580000E944402882311F081E3D3C086E290E008
:10059000FC018081809561E00E944402882311F073
:1005A00084E3C7C086E290E0FC018081809562E030
:1005B0000E944402882311F087E3BBC086E290E0EA
:1005C000FC018081809563E00E944402882311F041
:1005D0008AE2AFC008E210E040E065E08FEF0E94E1
:1005E0001602F8018083000086E290E0FC01808121
:1005F000809560E00E944402882311F082E399C054
:1006000086E290E0FC018081809561E00E944402D6
:10061000882311F085E38DC086E290E0FC018081A3
:10062000809562E00E944402882311F088E381C033
:1006300086E290E0FC018081809563E00E944402A4
:10064000882311F080E375C008E210E040E066E026
:100650008FEF0E941602F8018083000086E290E08E
:10066000FC018081809560E00E944402882311F0A3
:1006700083E35FC086E290E0FC018081809561E0C9
:100680000E944402882311F086E353C086E290E082
:10069000FC018081809562E00E944402882311F071
:1006A00089E347C086E290E0FC018081809563E0A9
:1006B0000E944402882311F083E23BC008E210E06C
:1006C00040E067E08FEF0E941602F801808300008F
:1006D00086E290E0FC018081809560E00E94440207
:1006E000882311F081E425C086E290E0FC0180813E
:1006F000809561E00E944402882311F082E419C0D1
:1007000086E290E0FC018081809562E00E944402D4
:10071000882311F083E40DC086E290E0FC01808123
:10072000809563E00E944402882311F084E401C0B4
:1007300080E0DF91CF911F910F910895CF93DF93C8
:1007400000D01F92CDB7DEB79B838A838A819B81BD
:10075000892B09F0A8C00E94AA0289838981882375
:1007600009F499C08981813331F485E290E021E870
:10077000FC01208395C08981813331F485E290E0CA
:1007800022E8FC0120838CC08981823331F485E228
:1007900090E022E8FC01208383C08981833331F417
:1007A00085E290E023E8FC0120837AC089818433CC
:1007B00031F485E290E024E8FC01208371C0898156
:1007C000853331F485E290E025E8FC01208368C0A0
:1007D0008981863331F485E290E026E8FC012083AC
:1007E0005FC08981873331F485E290E027E8FC011E
:1007F000208356C08981883331F485E290E029E86E
:10080000FC0120834DC08981893331F485E290E079
:1008100029E8FC01208344C08981813431F485E2D8
:1008200090E02AE8FC0120833BC08981823431F4C6
:1008300085E290E02BE8FC01208332C0898183347B
:1008400031F485E290E02CE8FC01208329C0898105
:10085000843431F485E290E02DE8FC01208320C04F
:1008600089818A3231F485E290E02EE8FC01208310
:1008700017C08981803331F485E290E020E8FC01E3
:1008800020830EC08981833259F485E290E02FE8FD
:10089000FC01208305C085E290E02FE1FC0120836C
:1008A0001B821A8203C01B821A82000000008A8108
:1008B0009B810F900F900F90DF91CF9108950F9330
:1008C0001F93CF93DF93CDB7DEB727970FB6F8947A
:1008D000DEBF0FBECDBF87E290E020EFFC0120839A
:1008E00088E290E02FE0FC01208384E290E02FEF8B
:1008F000FC01208385E290E0FC01108287E191E019
:100900009F838E8381E090E09C838B838FEF8D8328
:100910008D818093170182E390E0A0E0B0E08093A6
:10092000180190931901A0931A01B0931B018091B3
:10093000180190911901A0911A01B0911B018093A7
:100940001C0190931D01A0931E01B0931F018EE91D
:1009500093E0909321018093200162E370E080E0B6
:1009600090E00E9490000E94BE001A8219829BC0F3
:1009700089819A81880F991F9E012F5F3F4F820FB7
:10098000931F0596FC0180819181FC0125813681B0
:100990004781508589819A81880F991FBE016F5FB9
:1009A0007F4F860F971F0596FC0180819181FC0186
:1009B00081819281A381B481281739074A075B0797
:1009C00009F045C089819A81880F991F9E012F5F88
:1009D0003F4F820F931F0596FC0100811181898191
:1009E0009A81880F991F9E012F5F3F4F820F931F9F
:1009F0000596FC0180819181FC01218532858981E8
:100A00009A81880F991FAE014F5F5F4F840F951F2A
:100A10000596FC0180819181FC018081082E000CEB
:100A2000990BF9010995F801808389819A81880FD2
:100A3000991F9E012F5F3F4F820F931F0596FC0168
:100A400080819181FC01158216821782108689812E
:100A50009A81880F991F9E012F5F3F4F820F931F2E
:100A60000596FC012081318189819A81880F991F27
:100A7000AE014F5F5F4F840F951F0596FC0180818B
:100A80009181FC0185819681A781B085C296A11DC7
:100A9000B11DF90185839683A783B08789819A81E7
:100AA00001969A83898329813A818B819C812817B9
:100AB000390708F45DCF0000809112018823E1F32B
:100AC0001092120152CFA1E21A2EAA1BBB1BFD01EC
:100AD0000DC0AA1FBB1FEE1FFF1FA217B307E4071D
:100AE000F50720F0A21BB30BE40BF50B661F771F75
:100AF000881F991F1A9469F7609570958095909555
:100B00009B01AC01BD01CF0108950E94320608F49B
:100B100081E008950E949E050C946D060E94660671
:100B200058F00E945F0640F029F45F3F29F00C94D2
:100B3000560651110C94A1060C945C060E947E0688
:100B400068F39923B1F3552391F3951B550BBB27FC
:100B5000AA2762177307840738F09F5F5F4F220F41
:100B6000331F441FAA1FA9F335D00E2E3AF0E0E838
:100B700032D091505040E695001CCAF72BD0FE2F82
:100B800029D0660F771F881FBB1F26173707480716
:100B9000AB07B0E809F0BB0B802DBF01FF279358CE
:100BA0005F4F3AF09E3F510578F00C9456060C9436
:100BB000A1065F3FE4F3983ED4F386957795679559
:100BC000B795F7959F5FC9F7880F911D9695879503
:100BD00097F90895E1E0660F771F881FBB1F621722
:100BE00073078407BA0720F0621B730B840BBA0BE0
:100BF000EE1F88F7E09508950E9403066894B111EE
:100C00000C94A10608950E94860688F09F5798F0DC
:100C1000B92F9927B751B0F0E1F0660F771F881F01
:100C2000991F1AF0BA95C9F714C0B13091F00E941B
:100C3000A006B1E008950C94A006672F782F8827AE
:100C4000B85F39F0B93FCCF3869577956795B39542
:100C5000D9F73EF490958095709561957F4F8F4FB1
:100C60009F4F0895990F0008550FAA0BE0E8FEEF7B
:100C700016161706E807F907C0F012161306E40760
:100C8000F50798F0621B730B840B950B39F40A2659
:100C900061F0232B242B252B21F408950A2609F437
:100CA000A140A6958FEF811D811D089597F99F673B
:100CB00080E870E060E008959FEF80EC08950024E4
:100CC0000A941616170618060906089500240A94B1
:100CD00012161306140605060895092E0394000C37
:100CE00011F4882352F0BB0F40F4BF2B11F460FFC6
:100CF00004C06F5F7F4F8F4F9F4F089557FD9058EF
:100D0000440F551F59F05F3F71F04795880F97FBCF
:100D1000991F61F09F3F79F0879508951216130689
:100D20001406551FF2CF4695F1DF08C016161706B8
:100D30001806991FF1CF86957105610508940895ED
:100D4000E894BB2766277727CB0197F908950E947F
:100D5000320608F48FEF08950E94BF060C946D06CA
:100D60000E945F0638F00E94660620F0952311F07D
:100D70000C9456060C945C0611240C94A1060E9457
:100D80007E0670F3959FC1F3950F50E0551F629F4B
:100D9000F001729FBB27F00DB11D639FAA27F00DD4
:100DA000B11DAA1F649F6627B00DA11D661F829FFB
:100DB0002227B00DA11D621F739FB00DA11D621FE0
:100DC000839FA00D611D221F749F3327A00D611DFD
:100DD000231F849F600D211D822F762F6A2F1124DF
:100DE0009F5750409AF0F1F088234AF0EE0FFF1F12
:100DF000BB1F661F771F881F91505040A9F79E3F69
:100E0000510580F00C9456060C94A1065F3FE4F364
:100E1000983ED4F3869577956795B795F795E795BE
:100E20009F5FC1F7FE2B880F911D9695879597F9C7
:060E30000895F894FFCFC5
:100E36000000000200000000670000000000010042
:020E46000000AA
:00000001FF
